:100000000C9434000C944B000C9449000C9449005F
:100010000C9449000C9449000C9449000C9449003C
:100020000C9449000C9449000C9449000C9449002C
:100030000C9449000C9449000C9449000C9449001C
:100040000C9449000C9449000C9449000C9449000C
:100050000C9449000C9449000C9449000C944900FC
:100060000C9449000C94490011241FBECFEFD8E036
:10007000DEBFCDBF11E0A0E0B1E0EAEFF0E002C0EA
:1000800005900D92A230B107D9F70E9460000C9440
:100090007B000C9400001F920F920FB60F92112458
:1000A0008F939F939091000181E0911180E0809364
:1000B00000019F918F910F900FBE0F901F90189588
:1000C000259A529A80916900836080936900E89A2A
:1000D0008FB780688FBF2FEF83EC99E0215080406D
:1000E0009040E1F700C00000809100018295880FE8
:0A00F000807E85B9F0CFF894FFCFB1
:0200FA00010003
:00000001FF
