:100000000C9434000C9446000C9446000C94480068
:100010000C9446000C9446000C9446000C94460048
:100020000C9446000C9446000C9446000C94460038
:100030000C9446000C9446000C9446000C94460028
:100040000C9446000C9446000C9446000C94460018
:100050000C9446000C9446000C9446000C94460008
:100060000C9446000C94460011241FBECFEFD8E03C
:10007000DEBFCDBF21E0A0E0B1E001C01D92A13004
:10008000B207E1F70E945F000C947C000C94000022
:100090001F920F920FB60F9211248F939F9318996E
:1000A00007C09091000181E0911180E080930001F0
:1000B0009F918F910F900FBE0F901F90189584B154
:1000C000826284B9299A8091680081608093680077
:1000D00080916B00816080936B008FB780688FBFC9
:1000E0009091000125B130E2939FC0011124922F1D
:0C00F0009F7D892B85B9F4CFF894FFCFD9
:00000001FF
