:100000000C9434000C9449000C9449000C94490061
:100010000C9449000C9449000C9449000C9449003C
:100020000C9449000C9449000C9449000C9449002C
:100030000C9449000C9449000C944B000C9449001A
:100040000C9449000C9449000C9449000C9449000C
:100050000C9449000C9449000C9449000C944900FC
:100060000C9449000C94490011241FBECFEFD8E036
:10007000DEBFCDBF11E0A0E0B1E0E6EFF0E002C0EE
:1000800005900D92A230B107D9F70E9469000C9437
:1000900079000C9400001F920F920FB60F9211245A
:1000A0008F939F939BB180E489278BB98091000146
:1000B00090910101689415F8969587951694E1F74B
:1000C000815088BD9F918F910F900FBE0F901F9010
:1000D0001895569A84B5826084BD85B5836085BDC8
:1000E00089EF87BD80916E00826080936E00789466
:0600F000FFCFF894FFCFE2
:0200F600D00731
:00000001FF
