:100000000C9434000C9446000C9446000C9446006A
:100010000C9446000C9446000C9446000C94460048
:100020000C9446000C9446000C9446000C94460038
:100030000C9446000C9446000C9448000C94460026
:100040000C9446000C9446000C9446000C94460018
:100050000C9446000C9446000C9446000C94460008
:100060000C9446000C94460011241FBECFEFD8E03C
:10007000DEBFCDBF21E0A0E0B1E001C01D92A33002
:10008000B207E1F70E9483000C94AB000C940000CF
:100090001F920F920FB60F9211248F939F939091FE
:1000A000020181E0911180E08093020190910201B0
:1000B00085B1990F8D7F892B85B987B58F3F31F435
:1000C0001092010181E08093000108C087B5811181
:1000D00005C01092000181E0809301018091000130
:1000E000813019F487B5815006C0809101018130BB
:1000F00019F487B58F5F87BD9F918F910F900FBEC9
:100100000F901F90189584B1826284B984B5826083
:1001100084BD85B5856085BD80916E0082608093C9
:100120006E0017BC16BC8FB780688FBF2D9A2FEF5B
:1001300089E698E1215080409040E1F700C000003E
:100140002D982FEF89E698E1215080409040E1F70B
:0A01500000C00000EBCFF894FFCFD1
:00000001FF
