:100000000C9434000C9446000C9446000C9446006A
:100010000C9446000C9446000C9446000C94460048
:100020000C9446000C9446000C9446000C94460038
:100030000C9446000C9446000C9446000C94460028
:100040000C9446000C9446000C9446000C94460018
:100050000C9446000C9446000C9446000C94460008
:100060000C9446000C94460011241FBECFEFD8E03C
:10007000DEBFCDBF21E0A0E0B1E001C01D92A13004
:10008000B207E1F70E9448000C947B000C9400003A
:10009000569A83E884BD84E085BD16BC78949EE1C1
:1000A00026E99093000180910001873978F48091CE
:1000B000000187BDEFE5FAEE3197F1F700C00000CF
:1000C000809100018F5F80930001EDCF20930001AC
:1000D000809100018E3128F38091000187BDEFE50A
:1000E000FAEE3197F1F700C00000809100018150D5
:0A00F00080930001EDCFF894FFCFDC
:00000001FF
