:100000000C9434000C9446000C9446000C9446006A
:100010000C9446000C9446000C9446000C94460048
:100020000C9446000C9446000C9446000C94460038
:100030000C9446000C9446000C9446000C94460028
:100040000C9446000C9446000C9446000C94460018
:100050000C9446000C9446000C9446000C94460008
:100060000C9446000C94460011241FBECFEFD8E03C
:10007000DEBFCDBF21E0A0E0B1E001C01D92A23003
:10008000B207E1F70E9448000C9492000C94000023
:10009000569A84B5836884BD85B5836085BD16BCDA
:1000A0008FB780688FBF109201011092000180917C
:1000B0000001909101018F3F910509F0A8F4809112
:1000C00000019091010187BD8FE59AEE0197F1F74C
:1000D00000C0000080910001909101010196909371
:1000E000010180930001E3CF8FEF90E09093010135
:1000F00080930001809100019091010180910001A5
:100100009091010187BD9FEF29EF80E09150204041
:100110008040E1F700C00000809100019091010152
:080120000197E4CFF894FFCF32
:00000001FF
