:100000000C9434000C9446000C9446000C9446006A
:100010000C9446000C9446000C9446000C94460048
:100020000C9446000C9446000C9446000C94460038
:100030000C9446000C9446000C9446000C94460028
:100040000C9448000C9446000C9446000C94460016
:100050000C9446000C9446000C9446000C94460008
:100060000C9446000C94460011241FBECFEFD8E03C
:10007000DEBFCDBF21E0A0E0B1E001C01D92A13004
:10008000B207E1F70E946C000C9491000C94000000
:100090001F920F920FB60F9211242F933F938F93BD
:1000A0009F939091000181E0911180E08093000185
:1000B0009091000125B130E2939FC0011124922F4D
:1000C0009F7D892B85B99F918F913F912F910F90A3
:1000D0000FBE0F901F90189584B1826284B914BC32
:1000E00085B5856085BD80916E00816080936E00CE
:1000F00016BC8FB780688FBF299A2FEF83ED90E3EE
:10010000215080409040E1F700C0000029982FEF77
:1001100083ED90E3215080409040E1F700C0000063
:06012000EBCFF894FFCFC5
:00000001FF
