:100000000C9434000C9446000C9446000C9446006A
:100010000C9446000C9446000C9446000C94460048
:100020000C9446000C9446000C9446000C94460038
:100030000C9446000C9446000C9448000C94460026
:100040000C9446000C9446000C9446000C94460018
:100050000C9446000C9446000C9446000C94460008
:100060000C9446000C94460011241FBECFEFD8E03C
:10007000DEBFCDBF21E0A0E0B1E001C01D92A33002
:10008000B207E1F70E9473000C949A000C940000F0
:100090001F920F920FB60F9211248F9387B58F3F47
:1000A00031F41092010181E08093000108C087B50E
:1000B000811105C01092000181E0809301018091BF
:1000C0000001813019F487B5815006C0809101018B
:1000D000813019F487B58F5F87BD8F910F900FBE68
:1000E0000F901F901895259A569A84B5826484BD06
:1000F00085B5836085BD80916E00826080936E00BF
:1001000017BC16BC8FB780688FBF2D9A2FEF89E67A
:1001100098E1215080409040E1F700C000002D9808
:100120002FEF89E698E1215080409040E1F700C030
:080130000000EBCFF894FFCFB3
:00000001FF
