:100000000C9434000C9446000C9446000C9446006A
:100010000C9446000C9446000C9446000C94460048
:100020000C9446000C9446000C9448000C94460036
:100030000C9446000C946C000C9446000C94460002
:100040000C9446000C9446000C9446000C94460018
:100050000C9446000C9446000C9446000C94460008
:100060000C9446000C94460011241FBECFEFD8E03C
:10007000DEBFCDBF21E0A0E0B1E001C01D92A23003
:10008000B207E1F70E9488000C94AB000C940000CA
:100090001F920F920FB60F9211242F933F938F93BD
:1000A0009F939091010181E0911180E08093010183
:1000B0009091010125B130E2939FC0011124922F4C
:1000C0009F7D892B85B99F918F913F912F910F90A3
:1000D0000FBE0F901F9018951F920F920FB60F92A0
:1000E00011248F939F939091000181E0911180E002
:1000F000809300019091000185B1990F8D7F892B2C
:1001000085B99F918F910F900FBE0F901F901895FA
:1001100084B1826284B9809180008861809380007C
:100120008091810083688093810080916F0081625B
:1001300080936F0010928500109284008FB78068C2
:100140008FBF2FEF83EC99E0215080409040E1F782
:0A01500000C00000F6CFF894FFCFC6
:00000001FF
