:100000000C9434000C943E000C943E000C943E0082
:100010000C943E000C943E000C943E000C943E0068
:100020000C943E000C943E000C943E000C94400056
:100030000C943E000C943E000C943E000C943E0048
:100040000C943E000C943E000C943E000C943E0038
:100050000C943E000C943E000C943E000C943E0028
:100060000C943E000C943E0011241FBECFEFD8E04C
:10007000DEBFCDBF0E944A000C947E000C940000AD
:100080001F920F920FB60F9211240F900FBE0F9078
:100090001F90189584B1826284B980918000886431
:1000A00080938000809181008360809381008091A3
:1000B0006F00826080936F0080E392EF90938900DD
:1000C0008093880010928500109284008FB780681A
:1000D0008FBF2D9A2FEF83EC99E021508040904004
:1000E000E1F700C000002D982FEF83EC99E021503C
:1000F00080409040E1F700C00000EBCFF894FFCFC4
:00000001FF
