:100000000C9434000C9446000C9446000C9446006A
:100010000C9446000C9446000C9446000C94460048
:100020000C9446000C9446000C9446000C94460038
:100030000C9446000C9448000C9446000C94460026
:100040000C9446000C9446000C9446000C94460018
:100050000C9446000C9446000C9446000C94460008
:100060000C9446000C94460011241FBECFEFD8E03C
:10007000DEBFCDBF21E0A0E0B1E001C01D92A13004
:10008000B207E1F70E946C000C9488000C94000009
:100090001F920F920FB60F9211242F933F938F93BD
:1000A0009F939091000181E0911180E08093000185
:1000B0009091000125B130E2939FC0011124922F4D
:1000C0009F7D892B85B99F918F913F912F910F90A3
:1000D0000FBE0F901F901895259A809180008093F5
:1000E00080008091810084608093810080916F0006
:1000F000816080936F008FB780688FBF2FEF83ED93
:1001000090E3215080409040E1F700C00000F6CF1E
:04011000F894FFCF91
:00000001FF
