:100000000C9434000C9451000C9451000C94510049
:100010000C9451000C9451000C9451000C9451001C
:100020000C9451000C9451000C9451000C9451000C
:100030000C9451000C9451000C9451000C945100FC
:100040000C9451000C9451000C9451000C945100EC
:100050000C9451000C9451000C9451000C945100DC
:100060000C9451000C94510011241FBECFEFD8E026
:10007000DEBFCDBF11E0A0E0B1E0EEE1F1E002C0F3
:1000800005900D92A630B107D9F721E0A6E0B1E0C6
:1000900001C01D92A730B207E1F70E9453000C94F3
:1000A0008D000C940000259A2D98F8948091C00042
:1000B0008093C0008091C10088618093C1008091CD
:1000C000C20086608093C20087E690E09093C500EE
:1000D0008093C4007894E0E0F1E08091C00085FF57
:1000E000FCCF81918093C60081E0E630F807A9F744
:1000F0008091C00087FFFCCF8091C60080930601ED
:100100009091C00095FFFCCF8093C6008FE39CE9DF
:0E0110000197F1F700C00000EBCFF894FFCF8D
:06011E0048656C6C6F21C6
:00000001FF
